:10000000F7C00000F6C30000C7C3000018C100001D
:1000100016C1000014C1000012C1000017C4000086
:100020000EC100000CC100000AC1000008C10000A0
:1000300006C100008AC4000002C1000000C1000027
:1000400061C30000FCC00000CAC40000A3C40000DB
:10005000F6C00000F4C00000F2C00000F0C00000D4
:10006000EEC00000ECC00000020000000800020129
:1000700000000304070000000000000000CDCCCC0D
:100080003D0AD7233C17B7D13877CC2B329595E66C
:10009000241FB14F0A000020410000C84200401C4C
:1000A0004620BCBE4CCA1B0E5AAEC59D744E414E76
:1000B000494E495459494E46000000002500280089
:1000C0002B0000000000240027002A000404040480
:1000D00004040404020202020202030303030303F2
:1000E00001020408102040800102040810200102CF
:1000F0000408102000407A10F35A00A0724E18092C
:100100000010A5D4E80000E87648170000E40B547E
:10011000020000CA9A3B000000E1F505000080964D
:100120009800000040420F000000A086010000007F
:10013000102700000000E803000000006400000039
:1001400000000A00000000000100000000002C7602
:10015000D888DC674F0823DFC1DFAE59E1B1B7961D
:10016000E5E3E453C63AE651997696E8E6C284267A
:10017000EB898C9B62ED407C6FFCEFBC9C9F40F256
:10018000BAA56FA5F490055A2AF75C936B6CF967D2
:100190006DC11BFCE0E40D47FEF520E6B500D0ED97
:1001A000902E0300943577050080841E08000020FF
:1001B0004E0A000000C80C333333330F986E12839D
:1001C0001141EF8D2114893BE65516CFFEE6DB1871
:1001D000D1844B381BF77C1D901DA4BBE424203236
:1001E00084725E228100C9F124ECA1E53D2721053E
:1001F00011241FBECFEFD8E0DEBFCDBF11E0A0E0DD
:10020000B1E0EEEAF4E102C005900D92A231B1072F
:10021000D9F721E0A2E1B1E001C01D92AB3CB207E9
:10022000E1F710E0C8EFD0E004C02197FE010E9482
:100230005509C73FD107C9F731D40C94550AE0CE10
:1002400090E0FC01E052FF4F2491FC01E453FF4F8A
:100250008491882399F090E0880F991FFC01EE5358
:10026000FF4FA591B491FC01E854FF4F8591949103
:100270008FB7F894EC91E22BEC938FBF089590E048
:10028000FC01E759FF4F2491FC01E052FF4F3491EC
:10029000FC01E453FF4FE491EE2309F43CC0222318
:1002A00039F1233091F038F42130A9F0223001F5F2
:1002B00084B58F7D12C0273091F02830A1F0243012
:1002C000B9F4809180008F7D03C0809180008F778A
:1002D000809380000DC084B58F7784BD09C0809164
:1002E000B0008F7703C08091B0008F7D8093B00005
:1002F000F0E0EE0FFF1FE854FF4FA591B4919FB7B8
:10030000F894611104C08C913095382302C0EC91AF
:100310003E2B3C939FBF08953FB7F89480912A01EC
:1003200090912B01A0912C01B0912D0126B5A89B95
:1003300005C02F3F19F00196A11DB11D3FBFBA2F77
:10034000A92F982F8827820F911DA11DB11DBC01D7
:10035000CD0142E0660F771F881F991F4A95D1F79C
:100360000895CF92DF92EF92FF92CF93DF93D4DF85
:10037000EB0188E8C82E83E1D82EE12CF12CCCDFEC
:100380006C1B7D0B683E7340D0F381E0C81AD10826
:10039000E108F108C851DC4FC114D104E104F104B3
:1003A00071F7DF91CF91FF90EF90DF90CF9008959C
:1003B000A0E0B0E0EDEDF1E04BC76C01EB017B019B
:1003C000E40EF51E00E010E0CE15DF0561F0699146
:1003D000D601ED91FC910190F081E02DC6010995C7
:1003E000080F191FF1CFC801CDB7DEB7E8E04CC741
:1003F000FC01918D828D981761F0828DDF01A80F2D
:10040000B11D5D968C91928D9F5F9F73928F90E04E
:1004100008958FEF9FEF0895FC01918D828D9817BD
:1004200031F0828DE80FF11D858D90E008958FEFFA
:100430009FEF0895FC01918D228D892F90E0805CC3
:100440009F4F821B91098F73992708958EE291E047
:10045000F1DF21E0892B09F420E0822F0895FC01CF
:10046000848DDF01A80FB11DA35ABF4F2C91848D3D
:1004700090E001968F739927848FA689B7892C9372
:10048000A089B1898C9180648C93938D848D98130D
:1004900006C00288F389E02D80818F7D80830895D6
:1004A000CF92DF92FF920F931F93CF93DF931F9210
:1004B000CDB7DEB76C01DC015B969C915B975C96D7
:1004C0008C915C97981307C05096ED91FC915197D1
:1004D000808185FD2EC0F601038D10E00F5F1F4F58
:1004E0000F731127F02EF601848DF8120EC00FB68F
:1004F00007FCF9CF0088F189E02D808185FFF3CFDB
:10050000C6016983ACDF6981EECFD601838DF60128
:10051000E80FF11DE35AFF4F6083F601038F028855
:10052000F389E02D80818062808381E058968C93EE
:100530000DC0D6015696ED91FC9157976083509669
:10054000ED91FC91519780818064808381E090E0FF
:100550000F90DF91CF911F910F91FF90DF90CF907F
:100560000895CF93DF93EC01888D8823C1F0EA8949
:10057000FB89808185FD05C0A889B9898C9186FD9C
:100580000EC00FB607FCF5CF808185FFF2CFA8899A
:10059000B9898C9185FFEDCFCE0161DFE8CFDF9186
:1005A000CF91089580E090E0892B21F04FDF8111F9
:1005B0000E9400000895A1E2B0E0E0EEF2E044C63F
:1005C0006C01142FE52FCB01022F19A2223008F461
:1005D0000AE07E0121E2E20EF11C802E912CA12C7A
:1005E000B12C612F7E2FA5019401FCD5029F10191B
:1005F000112481E0E81AF1081A3014F4105D01C0EA
:10060000195CD7011C93122FE32FCA01232B242B33
:10061000252B39F7E114F10491F0F7010190002046
:10062000E9F73197AF014E195F09D601ED91FC91C1
:100630000280F381E02DB701C601099502C080E078
:1006400090E0A196ECE01CC660E082E018DE61E07C
:1006500089E015DE60E087E012DE61E088E00FDE11
:1006600061E08CE00CDE60E083E009DE61E084E0C4
:1006700006DE60E08BE003DE61E085E000DE60E046
:1006800086E0FDDD60E08AE0FADD61E082E0F7CD42
:100690000895A0E0B0E0EEE4F3E0D6C57C01EB0104
:1006A0006C0182E0C80ED11C4701E5E08E0E911C62
:1006B00000E010E0F60141916F0150E060E070E071
:1006C0002AE0CE0178DF5C01E881F9810190F081B8
:1006D000E02D6EE2CE0109958A0D9B1D080F191FB2
:1006E0008C149D0439F7F701458150E060E070E01B
:1006F0002AE0CE0160DF800F911FCDB7DEB7ECE0BE
:10070000BFC5C4D61F920F920FB60F9211242F931C
:100710003F938F939F93AF93BF93809126019091C6
:100720002701A0912801B09129013091250123E0F2
:10073000230F2D3720F40196A11DB11D05C026E819
:10074000230F0296A11DB11D209325018093260140
:1007500090932701A0932801B093290180912A0149
:1007600090912B01A0912C01B0912D010196A11D1A
:10077000B11D80932A0190932B01A0932C01B0937B
:100780002D01BF91AF919F918F913F912F910F902C
:100790000FBE0F901F9018951F920F920FB60F92D9
:1007A00011242F933F934F935F936F937F938F9376
:1007B0009F93AF93BF93EF93FF9380912301909109
:1007C0002401892B29F0E0912301F091240109955E
:1007D000FF91EF91BF91AF919F918F917F916F9119
:1007E0005F914F913F912F910F900FBE0F901F90EF
:1007F00018951F920F920FB60F9211242F933F93CB
:100800004F935F936F937F938F939F93AF93BF9318
:10081000EF93FF938091210190912201892B29F080
:10082000E0912101F09122010995FF91EF91BF9193
:10083000AF919F918F917F916F915F914F913F9178
:100840002F910F900FBE0F901F9018951F920F922F
:100850000FB60F9211242F933F934F935F936F9393
:100860007F938F939F93AF93BF93EF93FF93809169
:100870001D0190911E01A0911F01B0912001892BB3
:100880008A2B8B2B49F190911C01809100008927C4
:100890008093000080911D0190911E01A0911F0185
:1008A000B0912001181619061A061B060CF03CC060
:1008B00080911D0190911E01A0911F01B091200116
:1008C0000197A109B10980931D0190931E01A09386
:1008D0001F01B093200128C080910001E8E6F0E0FC
:1008E000E4919FEF90930001E130B9F098F0E2308D
:1008F000C9F4909170009D7F9093700091E0909367
:10090000B0009091B100987F94609093B1001092E4
:10091000B30008C010926E0005C090916F009D7FDB
:1009200090936F0060E0ABDCFF91EF91BF91AF91CE
:100930009F918F917F916F915F914F913F912F91F7
:100940000F900FBE0F901F9018951F920F920FB629
:100950000F9211242F933F934F935F936F937F9345
:100960008F939F93AF93BF93EF93FF93E0E0F0E0FB
:100970000995FF91EF91BF91AF919F918F917F91D9
:100980006F915F914F913F912F910F900FBE0F90FC
:100990001F9018951F920F920FB60F9211242F934C
:1009A0003F934F935F936F937F938F939F93AF93F7
:1009B000BF93EF93FF938EE291E051DDFF91EF91B2
:1009C000BF91AF919F918F917F916F915F914F9167
:1009D0003F912F910F900FBE0F901F9018951F926F
:1009E0000F920FB60F9211242F938F939F93EF9333
:1009F000FF93E0913E01F0913F018081E09144013D
:100A0000F091450182FD12C09081809147018F5F76
:100A10008F7320914801821751F0E0914701F0E077
:100A2000E25DFE4F958F8093470101C08081FF9169
:100A3000EF919F918F912F910F900FBE0F901F906C
:100A40001895EEE2F1E01382128288EE93E0A0E0C6
:100A5000B0E084839583A683B78385E091E091839A
:100A6000808385EC90E09587848784EC90E097877D
:100A7000868780EC90E0918B808B81EC90E0938B6B
:100A8000828B82EC90E0958B848B86EC90E0978B48
:100A9000868B118E128E138E148E0895789484B5E1
:100AA000826084BD84B5816084BD85B5826085BD6A
:100AB00085B5816085BD80916E00816080936E00F8
:100AC00010928100809181008260809381008091EA
:100AD000810081608093810080918000816080939B
:100AE00080008091B10084608093B1008091B0005B
:100AF00081608093B00080917A00846080937A0056
:100B000080917A00826080937A0080917A0081607F
:100B100080937A0080917A00806880937A001092A6
:100B2000C10082E08DDB83E08BDB84E089DB85E044
:100B300087DB86E085DB87E083DB88E081DB89E09B
:100B40007FDB8AE07DDB8BE07BDB8CE079DB8DE09B
:100B500077DB7ADD61E08DE092DB03DC75DD60E060
:100B60008DE08DDBFEDB1EDDF4CFA0E0B0E0EAEB34
:100B7000F5E06AC37C018B016115710519F0FB0179
:100B800091838083E7012196F701B0808B2D90E05F
:100B900081D4892B11F07E01F5CFFDE2BF1206C092
:100BA0002196F701B180FF24F39408C0FBE2BF1245
:100BB00004C0E7012296F701B180F12C6E01F1E04B
:100BC000CF1AD10843E050E065EB70E0C601A5D232
:100BD000892BE9F46E0182E0C80ED11C45E050E09B
:100BE00060EB70E0C60199D2892B21F46E0197E089
:100BF000C90ED11C0115110519F0F801D182C0826E
:100C0000F110DEC060E070E080E89FE7E2C043E002
:100C100050E06DEA70E0C60180D2892B49F40115DD
:100C2000110509F4D2C02296F801D183C083CDC04A
:100C30006E0120E030E0A901C0E0D0E0F60160EDF7
:100C4000A62EAB0C89E08A1530F19F2D9260E92E1B
:100C50008F2D8870F2FE04C0811125C0219623C01B
:100C600081112197A5E0B0E0DFD2DC01CB01880F34
:100C7000991FAA1FBB1F9C01AD012A0D311D411DEB
:100C8000511D283989E93807480789E1580758F084
:100C90009F2D966007C08EEFA8120BC0F3FC43C0D7
:100CA0009F2D9860E92E8FEFC81AD80AB080FE2CCD
:100CB000C5CF8B2D8F7D8534B1F580818D3221F4A8
:100CC0009F2D9061F92E06C08B3221F0319661E0A4
:100CD00070E004C08181329662E070E080538A3017
:100CE00018F0E61BF70B1FC060E070E060389CE076
:100CF00079075CF4DB01AA0FBB1FAA0FBB1F6A0FA9
:100D00007B1F660F771F680F711D3196DF011197EA
:100D10008C9180538A3050F3F4FE03C07195619535
:100D20007109C60FD71FF1FE08C00115110529F082
:100D3000CF010197F80191838083CA01B90115D2CF
:100D40002F2D2370233019F04B015C0106C04B019D
:100D50005C01B7FAB094B7F8B09420E030E0A90194
:100D6000C501B401B7D2882341F1D7FF06C0D195A0
:100D7000C195D10901E910E002C009EA10E068015B
:100D8000F8E1CF1AD10890E2E92EF12CCE15DF055B
:100D90006CF0F8012591359145915491C501B4014C
:100DA000C1D24B015C01CE19DF09F0CF045011090B
:100DB000F594E794C016D10649F7C501B40109C0FE
:100DC00060E070E080E89FEF04C060E070E080ECDD
:100DD0009FE7CDB7DEB7ECE053C266277727C5CED5
:100DE0001F93FC0199278827BC01E89411911032C8
:100DF000E9F3193010F01E30C8F31B3249F01D32F0
:100E000041F4689405C04ED0610F711D811D911D84
:100E1000119110531A30B8F33EF490958095709567
:100E200061957F4F8F4F9F4F1F910895FB01DC010C
:100E300005900D920020E1F70895FC010590002037
:100E4000E9F7809590958E0F9F1F089545325105C3
:100E500018F4423008F004C0FB011082CB01089561
:100E6000BB274A3031F4992322F4BDE29095819555
:100E70009F4F63C02532310518F4223008F004C0BA
:100E8000FA011082CA010895BB272A3051F4992330
:100E900042F4BDE290958095709561957F4F8F4F9C
:100EA0009F4F20C0592F482F372F262F660F771FAF
:100EB000881F991F660F771F881F991F620F731F66
:100EC000841F951F660F771F881F991F089525326D
:100ED000310518F4223008F004C0FA011082CA016A
:100EE0000895BB27FA01A62F6217710581059105A8
:100EF000330B30FB66F0AA27660F771F881F991FF8
:100F0000AA1FA21710F0A21B63953850A9F7A05D85
:100F1000AA3308F0A95DA19336F7B111B1931082FD
:100F2000CA0113C14532510518F4423008F004C01B
:100F3000FB011082CB010895BB27FB015527AA278F
:100F4000880F991FAA1FA41710F0A41B8395505156
:100F5000B9F7A05DAA3308F0A95DA193009779F7CE
:100F6000B111B1931192CB01F0C0283008F027E005
:100F70003327DA01990F311D87FD916000966105D5
:100F8000710539F432602E5F3D9330E32A95E1F725
:100F900008959F3F30F080387105610509F03C5F8E
:100FA0003C5F3D93913008F08068911DDF93CF93B3
:100FB0001F930F93FF92EF92192F987F9695E92F29
:100FC00096959695E90FFF27E25BFE4F9927332709
:100FD000EE24FF24A701E70105900894079428F464
:100FE000360FE71EF81E491F511D660F771F881F19
:100FF000991F0694A1F70590079428F4E70EF81EB0
:10100000491F561FC11D770F881F991F661F069421
:10101000A1F70590079428F4F80E491F561FC71F23
:10102000D11D880F991F661F771F0694A1F70590A1
:10103000079420F4490F561FC71FD81F990F661F2A
:10104000771F881F0694A9F784911095177041F0B7
:10105000D695C79557954795F794E7941A95C1F794
:10106000E4EFF0E0689415901591359165919591B4
:1010700005907FE27395E118F10A430B560BC90BFB
:10108000D009C0F7E10CF11E431F561FC91FD01D28
:101090007EF4703311F48A95E6CFE894015030F075
:1010A000080F0AF40027021708F4202F2395022FB7
:1010B0007A3328F079E37D932A95E9F710C07D9380
:1010C0002A9589F6069497956795379517951794FD
:1010D000E118F10A430B560BC90BD00998F0239580
:1010E0007E9173957A3308F070E37C932013B8F700
:1010F0007E9170617D9330F0839571E37D9370E311
:101100002A95E1F71124EF90FF900F911F91CF9155
:10111000DF91992787FD90950895FB01DC014150EF
:10112000504088F08D9181341CF08B350CF4805E3A
:10113000659161341CF06B350CF4605E861B6111A7
:1011400071F3990B0895881BFCCFDC01FC01672F1C
:1011500071917723E1F7329704C07C916D9370838E
:101160006291AE17BF07C8F30895E89409C097FBD2
:101170003EF490958095709561957F4F8F4F9F4F6E
:101180009923A9F0F92F96E9BB279395F6958795B2
:1011900077956795B795F111F8CFFAF4BB0F11F475
:1011A00060FF1BC06F5F7F4F8F4F9F4F16C088231C
:1011B00011F096E911C0772321F09EE8872F762F52
:1011C00005C0662371F096E8862F70E060E02AF093
:1011D0009A95660F771F881FDAF7880F969587957F
:1011E00097F90895A1E21A2EAA1BBB1BFD010DC0A1
:1011F000AA1FBB1FEE1FFF1FA217B307E407F507C7
:1012000020F0A21BB30BE40BF50B661F771F881FA2
:10121000991F1A9469F760957095809590959B0138
:10122000AC01BD01CF01089546D0A59F900DB49F9C
:10123000900DA49F800D911D112408952F923F922F
:101240004F925F926F927F928F929F92AF92BF92D6
:10125000CF92DF92EF92FF920F931F93CF93DF9382
:10126000CDB7DEB7CA1BDB0B0FB6F894DEBF0FBEDF
:10127000CDBF09942A88398848885F846E847D842C
:101280008C849B84AA84B984C884DF80EE80FD802E
:101290000C811B81AA81B981CE0FD11D0FB6F894A4
:1012A000DEBF0FBECDBFED010895EE0FFF1F05900D
:1012B000F491E02D0994A29FB001B39FC001A39FB8
:1012C000700D811D1124911DB29F700D811D11247F
:1012D000911D089503D008F481E00895990F000846
:1012E000550FAA0BE0E8FEEF16161706E807F907F8
:1012F000C0F012161306E407F50798F0621B730B93
:10130000840B950B39F40A2661F0232B242B252B13
:1013100021F408950A2609F4A140A6958FEF811DB6
:10132000811D08950BD078C069D028F06ED018F0D8
:10133000952309F05AC05FC01124A2C07ED0A0F34B
:10134000959FD1F3950F50E0551F629FF001729F5A
:10135000BB27F00DB11D639FAA27F00DB11DAA1F79
:10136000649F6627B00DA11D661F829F2227B00DC6
:10137000A11D621F739FB00DA11D621F839FA00D51
:10138000611D221F749F3327A00D611D231F849FA1
:10139000600D211D822F762F6A2F11249F575040F8
:1013A0008AF0E1F088234AF0EE0FFF1FBB1F661F93
:1013B000771F881F91505040A9F79E3F510570F04C
:1013C00014C05EC05F3FECF3983EDCF386957795E2
:1013D0006795B795F795E7959F5FC1F7FE2B880F47
:1013E000911D9695879597F9089597F99F6780E8DD
:1013F00070E060E008959FEF80EC089500240A9467
:101400001616170618060906089500240A941216DF
:101410001306140605060895092E0394000C11F412
:10142000882352F0BB0F40F4BF2B11F460FF04C0BF
:101430006F5F7F4F8F4F9F4F089557FD9058440F18
:10144000551F59F05F3F71F04795880F97FB991F23
:1014500061F09F3F79F087950895121613061406E0
:10146000551FF2CF4695F1DF08C01616170618066D
:10147000991FF1CF86957105610508940895E89448
:10148000BB2766277727CB0197F9089581E090E085
:10149000F8940BC0911106C0803219F08950855024
:0E14A000D0F70895992788270895F894FFCF74
:1014AE00FF000000005002D8011A02F8010C02B130
:0214BE0002002A
:00000001FF
